:0A09010000010202030304040505CF
:10033C00E4F513F512F511F510C203C200C202C2A6
:10034C00011207077E067F008E238F24752B0675FE
:10035C002C1275210675221C752906752A4A752DD5
:10036C0006752E78EE54C0700302044175140075A6
:10037C0015808E168F17C3749A9FFF74069ECF2418
:10038C0002CF3400FEE48F0F8E0EF50DF50CF50B3D
:10039C00F50AF509F508AF0FAE0EAD0DAC0CAB0BB5
:1003AC00AA0AA909A808C31208E45037E517250BB7
:1003BC00F582E516350AF583E0FFE515250BF58288
:1003CC00E514350AF583EFF0E4FAF9F8E50B2401AE
:1003DC00F50BEA350AF50AE93509F509E83508F5AA
:1003EC000880B385142385152474002480FF7406BB
:1003FC0034FFFEC3E52C9FF52CE52B9EF52BC3E5B6
:10040C00269FF526E5259EF525C3E5289FF528E5CD
:10041C00279EF527C3E5229FF522E5219EF521C3F2
:10042C00E52A9FF52AE5299EF529C3E52E9FF52E91
:10043C00E52D9EF52DD2E843D82090E668E04409DE
:10044C00F090E65CE0443DF0D2AF90E680E020E135
:10045C0005D20412079E90E680E054F7F0538EF814
:10046C00C20312069C300105120080C2013003F257
:10047C0012091F50EDC20312085120001690E6829B
:10048C00E030E704E020E1EF90E682E030E604E0C3
:0B049C0020E0E41207FA12092180C7DB
:0104A7002232
:0B05F50090E50DE030E402C322D322A9
:1000800090E6B9E0700302016B14700302021424BD
:10009000FE70030202AD24FB7003020165147003BD
:1000A00002015F147003020153147003020159240A
:1000B000056003020328120923400302033490E67B
:1000C000BBE024FE603B14605624FD6016146040C3
:1000D00024067075E52390E6B3F0E52490E6B4F0CD
:1000E0000203341205F5500FE52B90E6B3F0E52C32
:1000F00090E6B4F002033490E6A0E04401F002037D
:1001000034E52590E6B3F0E52690E6B4F00203343A
:10011000E52790E6B3F0E52890E6B4F002033490CA
:10012000E6BAE0FF120826AA06A9077B01EA494BB6
:10013000600DEE90E6B3F0EF90E6B4F00203349079
:10014000E6A0E04401F002033490E6A0E04401F0B0
:100150000203341208D202033412091302033412C8
:10016000090B0203341204EE020334120925400382
:1001700002033490E6B8E0247F602B14603C240234
:10018000600302020AA200E433FF25E0FFA202E4BA
:10019000334F90E740F0E4A3F090E68AF090E68BCE
:1001A0007402F0020334E490E740F0A3F090E68A92
:1001B000F090E68B7402F002033490E6BCE0547ECB
:1001C000FF7E00E0D3948040067C007D0180047CAB
:1001D000007D00EC4EFEED4F2401F58274093EF5E2
:1001E00083E493FF3395E0FEEF24A1FFEE34E68F26
:1001F00082F583E0540190E740F0E4A3F090E68AB2
:10020000F090E68B7402F002033490E6A0E0440123
:10021000F0020334120927400302033490E6B8E0E9
:1002200024FE601D2402600302033490E6BAE0B4A9
:100230000105C20002033490E6A0E04401F002038D
:100240003490E6BAE0705990E6BCE0547EFF7E0040
:10025000E0D3948040067C007D0180047C007D001A
:10026000EC4EFEED4F2401F58274093EF583E493D4
:10027000FF3395E0FEEF24A1FFEE34E68F82F58395
:10028000E054FEF090E6BCE05480FF131313541FBB
:10029000FFE0540F2F90E683F0E04420F002033497
:1002A00090E6A0E04401F00203340203341209296D
:1002B000400302033490E6B8E024FE602324027079
:1002C0005E90E6BAE0B40104D200806890E6BAE03D
:1002D000B40204805F805D90E6A0E04401F08054A9
:1002E00090E6BCE0547EFF7E00E0D3948040067C24
:1002F000007D0180047C007D00EC4EFEED4F24016A
:10030000F58274093EF583E493FF3395E0FEEF2414
:10031000A1FFEE34E68F82F583E04401F080159072
:10032000E6A0E04401F0800C1207CD500790E6A053
:0B033000E04401F090E6A0E04480F003
:01033B00229F
:0300330002091BA4
:04091B0053D8EF328C
:1007070090E600E054E74410F090E605E054FDF071
:1007170090E601E04440F090E61074A0F090E611F6
:10072700F000000090E61274A2F000000090E613BB
:1007370074A0F000000090E61474E2F0000000904E
:10074700E61574E0F000000090E6917480F0000078
:1007570000F000000090E695F0000000F043AF01C4
:01076700226F
:10069C00E5AA20E5657AF079007EF07F0074F0F52C
:1006AC009A7400F59B7AF879007EF87F0074F8F55F
:1006BC009D7400F59E90E690E0FE90E691E07C0043
:1006CC002400FFEC3EFEE4FDC3ED9FEC9E500F902A
:1006DC00E67BE090E67CF00DBD00010C80EA90E634
:1006EC0090E090E698F000000090E691E090E6999A
:0A06FC00F000000090E6917480F019
:0107060022D0
:02091F00D322E1
:02092100D322DF
:02092300D322DD
:08090B0090E6BAE0F51BD322CF
:1004EE0090E740E51BF0E490E68AF090E68B04F08E
:0204FE00D32207
:0809130090E6BAE0F51AD322C8
:1008D20090E740E51AF0E490E68AF090E68B04F0A7
:0208E200D3221F
:02092500D322DB
:02092700D322D9
:02092900D322D7
:1007CD0090E6B9E0242F601204701E90E604E0FF5D
:1007DD00430780000000EFF0801190E604E0FF5326
:0C07ED00077F000000EFF08002D322C361
:0107F90022DD
:10087600C0E0C083C082D2015391EF90E65D74015F
:08088600F0D082D083D0E032F3
:1008A600C0E0C083C0825391EF90E65D7404F0D03F
:0608B60082D083D0E03285
:1008BC00C0E0C083C0825391EF90E65D7402F0D02B
:0608CC0082D083D0E0326F
:10076800C0E0C083C082852925852A268526828502
:100778002583A37402F08521278522288528828570
:100788002783A37407F05391EF90E65D7410F0D0BF
:0607980082D083D0E032A4
:10088E00C0E0C083C082D2035391EF90E65D74083E
:08089E00F0D082D083D0E032DB
:1005B800C0E0C083C08290E680E030E72085212536
:1005C800852226852682852583A37402F08529271E
:1005D800852A28852882852783A37407F05391EFFD
:0D05E80090E65D7420F0D082D083D0E03228
:01092B003299
:01092C003298
:01092D003297
:01092E003296
:01092F003295
:010930003294
:010931003293
:010932003292
:010933003291
:010934003290
:01093500328F
:01093600328E
:01093700328D
:01093800328C
:01093900328B
:01093A00328A
:01093B003289
:01093C003288
:01093D003287
:01093E003286
:01093F003285
:010940003284
:010941003283
:010942003282
:010943003281
:010944003280
:01094500327F
:01094600327E
:01094700327D
:01094800327C
:01094900327B
:01094A00327A
:01094B003279
:01094C003278
:01094D003277
:01094E003276
:100600001201000200000040B404041000000102C6
:1006100000010A06000200000040010009022E004D
:1006200001010080320904000004FF0000000705FA
:10063000020200020007050402000200070586020C
:100640000002000705880200020009022E000101D5
:100650000080320904000004FF00000007050202C8
:100660004000000705040240000007058602400024
:10067000000705880240000004030904100343003A
:100680007900700072006500730073000E0345006E
:0C0690005A002D005500530042000000ED
:1007FA0090E682E030E004E020E60B90E682E0300A
:10080A00E119E030E71590E680E04401F07F147EBC
:0C081A00001204A890E680E054FEF022DA
:10079E0030040990E680E0440AF0800790E680E09D
:1007AE004408F07FDC7E051204A890E65D74FFF02D
:0F07BE0090E65FF05391EF90E680E054F7F02261
:02082600A90720
:10082800AE2DAF2E8F828E83A3E064037017AD01C7
:1008380019ED7001228F828E83E07C002FFDEC3E43
:08084800FEAF0580DFE4FEFFB6
:010850002285
:1008510090E682E044C0F090E681F0438701000019
:040861000000002271
:1004A8008E188F1990E600E054187012E51924018F
:1004B800FFE43518C313F518EF13F519801590E606
:1004C80000E05418FFBF100BE51925E0F519E518F1
:1004D80033F518E5191519AE18700215184E600590
:0604E80012086580EE22FF
:100865007400F58690FDA57C05A3E582458370F9A6
:010875002260
:03004300020500B3
:03005300020500A3
:10050000020876000208BC000208A60002088E005D
:10051000020768000205B80002092B0002092C003E
:1005200002092D0002092E0002092F0002093000E5
:1005300002093100020932000209330002093400C5
:100540000209350002092C000209360002093700B1
:10055000020938000209390002093A0002093B0089
:1005600002093C0002092C0002092C0002092C009F
:1005700002093D0002093E0002093F000209400055
:100580000209410002094200020943000209440035
:100590000209450002094600020947000209480015
:1005A0000209490002094A0002094B0002094C00F5
:0805B00002094D0002094E0092
:030000000208F5FE
:0C08F500787FE4F6D8FD75812E02033CEC
:1008E400EB9FF5F0EA9E42F0E99D42F0E89C45F06A
:0108F40022E1
:00000001FF
